:100000000C9492000C94AF000C94AF000C94AF00D1
:100010000C94AF000C94AF000C94AF000C94AF00A4
:100020000C94AF000C94AF000C94AF000C94AF0094
:100030000C94AF000C94AF000C94AF000C94AF0084
:100040000C94AF000C94AF000C94AF000C94AF0074
:100050000C94AF000C94AF000C94F1090800000060
:10006000BE922449123EABAAAA2ABECDCCCC4C3EAD
:1000700000000080BEABAAAAAA3E00000000BF009C
:100080000000803F0000000000084178D3BB438798
:10009000D1133D190E3CC3BD4282AD2B3E68EC82AC
:1000A00076BED98FE1A93E4C80EFFFBE01C4FF7F31
:1000B0003F0000000000510A802A0000000A0040B2
:1000C000000059551801111E111B500B411B411FF7
:1000D0001101511F511B0000000000000000000032
:1000E00000000000510F913941149131411E410E21
:1000F000411D500F802010154886401478057085EA
:100100005115510E5195518E219081205015484422
:1001100050C528C028200950000000000000000041
:100120000000000011241FBECFEFD4E0DEBFCDBF22
:1001300012E0A0E0B1E0E0EFF8E202C005900D921D
:10014000A833B107D9F712E0A8E3B2E001C01D92CD
:10015000AE38B107E1F70E94EC000C9476140C94D1
:100160000000DF93CF9300D0CDB7DEB7AAE7B0E0B1
:10017000EAE7F0E0808180688C93A1E3B0E0E1E3FE
:10018000F0E0808188608C93A0E3B0E0E0E3F0E0F1
:10019000808188608C93AAE7B0E0EAE7F0E0808194
:1001A00080648C93EAE7F0E08081882F90E0807192
:1001B00090700097B9F3E8E7F0E08081918196951F
:1001C0008795969587959A83898389819A810F90DF
:1001D0000F90CF91DF9108950F931F93DF93CF93EB
:1001E000CDB7DEB7C059D0400FB6F894DEBF0FBE12
:1001F000CDBFA4E2B0E0E4E2F0E080818F728C93A6
:10020000ADE2B0E0EDE2F0E080818C7E8C93A5E27F
:10021000B0E0E5E2F0E08081876D8C93AEE2B0E083
:10022000EEE2F0E080818C6E8C930E946008EAE739
:10023000F0E080E88083E0E3F0E01082FE01ED571B
:10024000FF4F11821082FE01E757FF4F83E090E0DD
:1002500091838083FE01E957FF4F83E090E0918313
:100260008083FE01EB57FF4F83E090E09183808312
:10027000EAE2F0E08FEF808380E091E00E949F0847
:10028000FE01E359FF4F80E090E0AAEFB4E48083E1
:100290009183A283B3838E0107591F4FFE01E35957
:1002A000FF4F608171818281938120E030E04AE7D5
:1002B00053E40E94180DDC01CB01F8018083918387
:1002C000A283B383FE01E759FF4F60817181828170
:1002D000938120E030E040E85FE30E941E0F882316
:1002E00044F4FE01E959FF4F81E090E0918380835F
:1002F00064C0FE01E759FF4F608171818281938163
:1003000020E03FEF4FE757E40E94BE0E18160CF0B6
:1003100043C0FE01E359FF4F608171818281938167
:1003200020E030E040E251E40E94180DDC01CB01F6
:100330008E0109591F4FBC01CD010E94420BDC0107
:10034000CB01F801918380831FC0FE01EB59FF4F61
:1003500089E190E091838083FE01EB59FF4F80811A
:1003600091810197F1F7FE01EB59FF4F9183808353
:10037000DE01A959BF4FFE01E959FF4F80819181EC
:10038000019711969C938E93FE01E959FF4F80814E
:1003900091810097D1F627C08E0109591F4FFE01A8
:1003A000E759FF4F60817181828193810E94420BE6
:1003B000DC01CB01F80191838083DE01AD59BF4F91
:1003C000FE01E959FF4F808191818D939C93FE013D
:1003D000ED59FF4F808191810197F1F7FE01ED59B1
:1003E000FF4F918380830E94840888E091E00E94FF
:1003F0009F08E3E2F0E080818823DCF3E3E2F0E0B1
:1004000080818823DCF7FE01EF58FF4F11821082B4
:10041000F5C00E945407FE01EF57FF4F9183808380
:10042000FE01EF57FF4F808191812DE332E0B9014A
:100430004AE050E00E946E128DE392E00E949F0815
:10044000FE01E15AFF4F80E090E0A8E4B3E480832E
:100450009183A283B3838E01055A1F4FFE01E15A97
:10046000FF4F608171818281938120E030E04AE713
:1004700053E40E94180DDC01CB01F80180839183C5
:10048000A283B383FE01E55AFF4F608171818281AF
:10049000938120E030E040E85FE30E941E0F882354
:1004A00044F4FE01E75AFF4F81E090E0918380839E
:1004B00064C0FE01E55AFF4F6081718182819381A2
:1004C00020E03FEF4FE757E40E94BE0E18160CF0F5
:1004D00043C0FE01E15AFF4F6081718182819381A7
:1004E00020E030E040E251E40E94180DDC01CB0135
:1004F0008E01075A1F4FBC01CD010E94420BDC0147
:10050000CB01F801918380831FC0FE01E95AFF4FA0
:1005100089E190E091838083FE01E95AFF4F808159
:1005200091810197F1F7FE01E95AFF4F9183808392
:10053000DE01A75ABF4FFE01E75AFF4F808191812C
:10054000019711969C938E93FE01E75AFF4F80818D
:1005500091810097D1F628C08E01075A1F4FFE01E6
:10056000E55AFF4F60817181828193810E94420B25
:10057000DC01CB01F80191838083DE01AB5ABF4FD0
:10058000FE01E75AFF4F8081918111969C938E93D3
:10059000FE01EB5AFF4F808191810197F1F7FE0137
:1005A000EB5AFF4F91838083E3E2F0E08081882360
:1005B0000CF42FCFE3E2F0E080818823DCF7FE012A
:1005C000EF58FF4F008111810E945407AC019E013A
:1005D00025573F4FC801880F991FF901E80FF91FF0
:1005E00051834083DE01AF58BF4FFE01EF58FF4FEC
:1005F00080819181019611969C938E93FE01EF5814
:10060000FF4F808191818330910574F2FE01E5579F
:10061000FF4F20813181FE01E757FF4F808191819B
:100620002817390709F0AEC3FE01E557FF4F2281B5
:100630003381FE01E957FF4F8081918128173907E7
:1006400009F0A0C3FE01E557FF4F24813581FE016B
:10065000EB57FF4F808191812817390709F092C32A
:100660000E94840881E191E00E949F08FE01EF5AF8
:10067000FF4F80E090E0AAEFB4E480839183A283EF
:10068000B3838E01035B1F4FFE01EF5AFF4F608162
:1006900071818281938120E030E04AE753E40E9437
:1006A000180DDC01CB01F80180839183A283B38311
:1006B000FE01E35BFF4F608171818281938120E0C5
:1006C00030E040E85FE30E941E0F882344F4FE01FF
:1006D000E55BFF4F81E090E09183808364C0FE0181
:1006E000E35BFF4F608171818281938120E03FEF66
:1006F0004FE757E40E94BE0E18160CF043C0FE01EF
:10070000EF5AFF4F608171818281938120E030E058
:1007100040E251E40E94180DDC01CB018E01055B23
:100720001F4FBC01CD010E94420BDC01CB01F8013F
:10073000918380831FC0FE01E75BFF4F89E190E05A
:1007400091838083FE01E75BFF4F80819181019758
:10075000F1F7FE01E75BFF4F91838083DE01A55B2C
:10076000BF4FFE01E55BFF4F80819181019711969C
:100770009C938E93FE01E55BFF4F808191810097F2
:10078000D1F627C08E01055B1F4FFE01E35BFF4FD3
:1007900060817181828193810E94420BDC01CB01D7
:1007A000F80191838083DE01A95BBF4FFE01E55B09
:1007B000FF4F808191818D939C93FE01E95BFF4FF8
:1007C000808191810197F1F7FE01E95BFF4F9183F1
:1007D00080830E9496078E0109581F4FAA2797FD14
:1007E000A095BA2FBC01CD010E944E0FDC01CB01B8
:1007F000F80180839183A283B383A5E2B0E0E5E2B0
:10080000F0E0808181608C93FE01E158FF4F1182FE
:100810001082FE01ED58FF4F80E090E0A0E0B0E0D4
:1008200080839183A283B383A2C2FE01E158FF4F6C
:10083000808191810E941E08FE01E158FF4F918343
:100840008083FE01E158FF4F8081918181309105C5
:1008500009F051C10E9496078E0105581F4FAA2723
:1008600097FDA095BA2FBC01CD010E944E0FDC016F
:10087000CB01F80180839183A283B38384E191E06B
:100880000E949F08FE01ED5BFF4F80E090E0A8E42E
:10089000B4E480839183A283B3838E01015C1F4FF4
:1008A000FE01ED5BFF4F608171818281938120E0C9
:1008B00030E04AE753E40E94180DDC01CB01F80157
:1008C00080839183A283B383FE01FF96608171814F
:1008D0008281938120E030E040E85FE30E941E0FB8
:1008E00088232CF481E090E09EAF8DAF46C0FE01DE
:1008F000FF96608171818281938120E03FEF4FE715
:1009000057E40E94BE0E181664F5FE01ED5BFF4F22
:10091000608171818281938120E030E040E251E486
:100920000E94180DDC01CB01BC01CD010E94420BDD
:10093000DC01CB019EAF8DAF0FC089E190E09CAF91
:100940008BAF8BAD9CAD0197F1F79CAF8BAF8DADAD
:100950009EAD01979EAF8DAF8DAD9EAD009769F7AF
:1009600016C0FE01FF9660817181828193810E9491
:10097000420BDC01CB019EAF8DAF8DAD9EAD9AAF2A
:1009800089AF89AD9AAD0197F1F79AAF89AFFE01B2
:10099000E558FF4F60817181828193810E94AC0F85
:1009A000DC01CB012DE332E0B9014AE050E00E94C6
:1009B0006E128DE392E00E949F08FE01E558FF4F02
:1009C000DE01A958BF4F60817181828193812D9191
:1009D0003D914D915C910E94BE0E181644F4A5E223
:1009E000B0E0E5E2F0E0808182608C9307C0A5E290
:1009F000B0E0E5E2F0E080818D7F8C9380E090E0D4
:100A0000A8E4B4E48DAB9EABAFABB8AF6DA97EA943
:100A10008FA998AD20E030E04AE753E40E94180D1A
:100A2000DC01CB0189AB9AABABABBCAB69A97AA9B2
:100A30008BA99CA920E030E040E85FE30E941E0FF4
:100A400088232CF481E090E098AB8FA73FC069A980
:100A50007AA98BA99CA920E03FEF4FE757E40E94B9
:100A6000BE0E18164CF56DA97EA98FA998AD20E091
:100A700030E040E251E40E94180DDC01CB01BC01E2
:100A8000CD010E94420BDC01CB0198AB8FA70FC0B8
:100A900089E190E09EA78DA78DA59EA50197F1F70E
:100AA0009EA78DA78FA598A9019798AB8FA78FA513
:100AB00098A9009769F714C069A97AA98BA99CA97C
:100AC0000E94420BDC01CB0198AB8FA78FA598A9A0
:100AD0009CA78BA78BA59CA50197F1F79CA78BA73B
:100AE000FE01ED58FF4F80E090E0A0E0B0E0808391
:100AF0009183A283B383FE01E158FF4F80819181EE
:100B0000823091050CF486C0A5E2B0E0E5E2F0E0A9
:100B1000808184608C9389E191E00E949F08A5E226
:100B2000B0E0E5E2F0E080818E7F8C9380E090E0A1
:100B3000AAE7B4E48FA398A7A9A7BAA76FA178A53D
:100B400089A59AA520E030E04AE753E40E94180DF9
:100B5000DC01CB018BA39CA3ADA3BEA36BA17CA1A5
:100B60008DA19EA120E030E040E85FE30E941E0FCF
:100B700088232CF481E090E09AA389A33FC06BA165
:100B80007CA18DA19EA120E03FEF4FE757E40E949A
:100B9000BE0E18164CF56FA178A589A59AA520E080
:100BA00030E040E251E40E94180DDC01CB01BC01B1
:100BB000CD010E94420BDC01CB019AA389A30FC097
:100BC00089E190E098A38F8F8F8D98A10197F1F71D
:100BD00098A38F8F89A19AA101979AA389A389A12C
:100BE0009AA1009769F714C06BA17CA18DA19EA169
:100BF0000E94420BDC01CB019AA389A389A19AA18F
:100C00009E8F8D8F8D8D9E8D0197F1F79E8F8D8F8D
:100C10000E947F07FE01E158FF4F808191811816E5
:100C200019060CF4A4C0FE01ED58FF4F60817181DC
:100C30008281938120E030E44CE156E40E941E0F53
:100C40008823C4F48E010D581F4FFE01ED58FF4F4D
:100C5000608171818281938120E030E040E85FE330
:100C60000E94EB0CDC01CB01F80180839183A2830D
:100C7000B3837DC08FE191E00E949F0880E090E007
:100C8000AAEFB3E4898F9A8FAB8FBC8F698D7A8D71
:100C90008B8D9C8D20E030E04AE753E40E94180DD4
:100CA000DC01CB018D8B9E8BAF8BB88F6D897E89DC
:100CB0008F89988D20E030E040E85FE30E941E0FAE
:100CC00088232CF481E090E09C8B8B8B3FC06D8956
:100CD0007E898F89988D20E03FEF4FE757E40E948F
:100CE000BE0E18164CF5698D7A8D8B8D9C8D20E08B
:100CF00030E040E251E40E94180DDC01CB01BC0160
:100D0000CD010E94420BDC01CB019C8B8B8B0FC071
:100D100089E190E09A8B898B89899A890197F1F70B
:100D20009A8B898B8B899C8901979C8B8B8B8B8968
:100D30009C89009769F714C06D897E898F89988D89
:100D40000E94420BDC01CB019C8B8B8B8B899C8995
:100D5000988B8F878F8598890197F1F7988B8F876C
:100D6000A5E2B0E0E5E2F0E080818E7F8C93E5E2E1
:100D7000F0E08081882F90E081709070882309F0E6
:100D800054CD7ACADE01AD57BF4FFE01ED57FF4F7C
:100D900080819181019611969C938E93FE01ED576F
:100DA000FF4F80819181833091051CF00E947F0765
:100DB00063CA0E94840884E291E00E949F0880E058
:100DC00090E0AAE7B4E48B879C87AD87BE876B85EC
:100DD0007C858D859E8520E030E04AE753E40E94C3
:100DE000180DDC01CB018F839887A987BA876F81A3
:100DF000788589859A8520E030E040E85FE30E94AD
:100E00001E0F88232CF481E090E09E838D833FC0E9
:100E10006F81788589859A8520E03FEF4FE757E419
:100E20000E94BE0E18164CF56B857C858D859E85BF
:100E300020E030E040E251E40E94180DDC01CB01DB
:100E4000BC01CD010E94420BDC01CB019E838D834E
:100E50000FC089E190E09C838B838B819C810197FB
:100E6000F1F79C838B838D819E8101979E838D8377
:100E70008D819E81009769F714C06F81788589857F
:100E80009A850E94420BDC01CB019E838D838D816C
:100E90009E819A83898389819A810197F1F79A8348
:100EA00089830E948408E8C9DF93CF9300D000D0E3
:100EB000CDB7DEB71C821B821A821982ECE7F0E004
:100EC00081E080830E94B1009A838983E8E7F0E0A3
:100ED000808191819A83898389819A8121E130E09F
:100EE000B9010E949F12CB019C838B838B819C81D3
:100EF0000F900F900F900F90CF91DF910895DF9397
:100F0000CF93CDB7DEB789E291E00E949F08E3E27C
:100F1000F0E080818823DCF3A5E2B0E0E5E2F0E0D8
:100F200080818B7F8C93CF91DF910895DF93CF9356
:100F3000CDB7DEB760970FB6F894DEBF0FBECDBF5A
:100F40001C821B82ECE7F0E010820E94B1009C83BF
:100F50008B83E8E7F0E0808191819C838B8320E0A4
:100F600034E08B819C81A901481B590BCA01CC013B
:100F7000A0E0B0E0BC01CD010E940010DC01CB017B
:100F80008D839E83AF83B8878B819C81CC01A0E049
:100F9000B0E0BC01CD010E940010DC01CB01BC011E
:100FA000CD012D813E814F8158850E94120EDC01BA
:100FB000CB018D879E87AF87B88B8D859E85AF854A
:100FC000B889BC01CD010E94EF12DC01CB018987F9
:100FD0009A87AB87BC8769857A858B859C852CEE43
:100FE0003FE244E651E40E94EB0CDC01CB019C01A2
:100FF000AD0160E070ED84E895E40E94120EDC0122
:10100000CB01BC01CD0120E030E848E853E40E9468
:10101000BA0CDC01CB01BC01CD010E94AC0FDC019C
:10102000CB019A83898389819A8160960FB6F8945F
:10103000DEBF0FBECDBFCF91DF910895DF93CF9379
:1010400000D0CDB7DEB79A838983E3E2F0E08081F8
:1010500088237CF1ECE2F0E08081882F90E08072C0
:101060009070009731F1E3E2F0E0808188234CF04A
:10107000ECE2F0E08081882F90E080729070009721
:1010800091F7ECE2F0E08081882F90E08072907020
:10109000009729F489819A8101969A838983E3E2F2
:1010A000F0E0808188232CF489819A8101979A83CA
:1010B000898389819A810F900F90CF91DF91089554
:1010C000DF93CF93CDB7DEB780E00E94D109E7EE82
:1010D000F0E08FE08083E5EEF0E087EB8083E6EEE2
:1010E000F0E087E08083E4EEF0E080EC8083A4EE23
:1010F000B0E0E4EEF0E0808188608C9310923802DA
:101100007894CF91DF910895DF93CF930F92CDB76D
:10111000DEB710923C0219820BC08981882F90E0C3
:10112000FC01EC58FD4F80E2808389818F5F8983C9
:101130008981893190F30F90CF91DF910895DF93EA
:10114000CF9300D00F92CDB7DEB79B838A8381E027
:1011500080933C0281E08093380282E291E00E9419
:10116000D80A81E080933C0280913C02882309F4F4
:1011700043C010923C02809138028823E1F7198223
:1011800013C08981482F50E08981282F30E08A815F
:101190009B81FC01E20FF31F8081FA01EC58FD4FA7
:1011A000808389818F5F89838981282F30E08A81BC
:1011B0009B81FC01E20FF31F8081882319F0898154
:1011C0008931F8F28981882F90E0FC01EC58FD4FBD
:1011D00010828981873048F081E080935F0210920D
:1011E0008D0283E08093390204C010925F02109256
:1011F0008D0281E0809338020F900F900F90CF9175
:10120000DF910895DF93CF9300D0CDB7DEB78A8307
:10121000198281E080933C0283E291E00E94D80A27
:101220008981893140F48981882F90E0FC01EC5854
:10123000FD4F8A8180830F900F90CF91DF910895A9
:10124000DF93CF930F92CDB7DEB7898389818093E7
:101250003B020F90CF91DF910895DF93CF9300D0A1
:10126000CDB7DEB789836A83809138028823E1F79E
:101270008A8180935F0210928D0289818093380267
:101280000F900F90CF91DF910895DF93CF93CDB75B
:10129000DEB710923A02CF91DF910895DF93CF939A
:1012A000CDB7DEB72D970FB6F894DEBF0FBECDBF1A
:1012B0008C876D871B861A868D85863008F068C0FE
:1012C0008C858A3210F18C858B37F8F48C858136C9
:1012D00018F08C858F7D8C878C858A528C878C85C5
:1012E000882F90E0880F991F8A549F4F9C838B838F
:1012F0008B819C81FC01859194919A838983FC83E5
:10130000EB8389819A819B878A878D85882F90E0DE
:1013100081709070882319F08FE0898702C080EF78
:1013200089878D858695882F90E0805A9D4F9F8371
:101330008E831D822AC08A858F7088878A859B85C7
:10134000929582958F7089279F7089279B878A87BE
:101350008D85882F90E081709070882321F088859A
:101360008295807F8887EE81FF819081898598238F
:101370008885892BEE81FF8180838E819F810596F0
:101380009F838E838D818F5F8D838D81843098F2D2
:101390002D960FB6F894DEBF0FBECDBFCF91DF9173
:1013A0000895DF93CF9300D0CDB7DEB78A838A81CB
:1013B000882311F08FEF8A8319820BC08981882FCF
:1013C00090E0FC01E05AFD4F8A81808389818F5F24
:1013D00089838981843190F30F900F90CF91DF91B1
:1013E00008951F920F920FB60F9211242F933F93DF
:1013F0004F935F936F937F938F939F93AF93BF931D
:10140000EF93FF93DF93CF9300D000D00F92CDB72F
:10141000DEB780912E01815080932E0180915F0272
:10142000882391F080912E01882381F480913902E4
:10143000882321F481E08093380208C0809139022A
:1014400081508093390202C010928D021A828091DD
:101450003802813009F081C080913A02853010F461
:101460001B8202C081E08B83198243C080918D0270
:10147000282F332727FD30958981882F90E0820F10
:10148000931F992314F18A818823F9F48981282FE5
:1014900030E080918D02992787FD9095820F931FF0
:1014A000FC01EC58FD4F80818D838D811C82882347
:1014B00014F481E08C838D818F778D838D818823D7
:1014C00031F489818F5F8A8302C080E28D838C81B1
:1014D000882341F08B81882329F080E269810E9472
:1014E0004E0904C08D8169810E944E0989818F5FF8
:1014F00089838981863008F4B9CF198211C0898126
:10150000882F90E0DC01A451BF4F8981882F90E0A3
:10151000FC01E05AFD4F80818C9389818F5F898324
:101520008981843160F380913B02882329F0E4EFC4
:10153000F0E081E0808303C0E4EFF0E010828A8174
:10154000813021F48AEF80938D0205C080918D0255
:101550008F5F80938D021092380280912E01882334
:1015600019F483E080932E0180913A028A3019F4B5
:1015700010923A0205C080913A028F5F80933A023E
:101580000F900F900F900F900F90CF91DF91FF91E0
:10159000EF91BF91AF919F918F917F916F915F91EB
:1015A0004F913F912F910F900FBE0F901F90189564
:1015B000DF93CF93CDB7DEB729970FB6F894DEBF90
:1015C0000FBECDBF9987888781E080933C028091D0
:1015D0003C02882309F44DC010923C0280913802ED
:1015E0008823E1F71F8218C08F81482F50E08F8138
:1015F000282F30E088859985820F931F9E838D83E5
:10160000ED81FE8184918C838C81FA01EC58FD4F31
:1016100080838F818F5F8F838F81282F30E0888533
:101620009985820F931F9B838A83EA81FB81849132
:1016300089838981882319F08F818931A8F28F816C
:10164000882F90E0FC01EC58FD4F10828F8187308D
:1016500048F081E080935F0210928D0283E08093D6
:10166000390204C010925F0210928D0281E08093D3
:10167000380229960FB6F894DEBF0FBECDBFCF91CA
:10168000DF910895EF92FF920F931F937B018C01DE
:1016900020E030E040E05FE40E94EE0E88238CF012
:1016A000C801B70120E030E040E05FE40E94BA0CDE
:1016B0000E94AC0F9B01AC0120503040404050488C
:1016C00006C0C801B7010E94AC0F9B01AC01B90173
:1016D000CA011F910F91FF90EF900895A0E0B0E034
:1016E000E4E7FBE00C94B312DC012B01FA019C91BE
:1016F000923008F439C1EB018881823008F433C19B
:10170000943069F4843009F02FC111969C9111979F
:101710008981981709F428C1A0E3B1E025C184307C
:1017200009F421C18230A9F4923009F01DC19A0157
:10173000AD0188E0EA010990AE01E90109929E013C
:101740008150C1F7E201898111969C91892381839F
:1017500008C1923009F407C112962D903C9013975E
:10176000EB018A819B811496AD90BD90CD90DC9069
:101770001797EC80FD800E811F819101281B390B8A
:10178000B90137FF04C066277727621B730B6032ED
:1017900071050CF061C0121613066CF53701480193
:1017A000062E04C096948794779467940A94D2F78F
:1017B00021E030E040E050E004C0220F331F441F1E
:1017C000551F6A95D2F721503040404050402E219D
:1017D0003F2140235123211531054105510521F0B9
:1017E00021E030E040E050E079018A01E628F72866
:1017F000082919293CC0232BD1F1260E371E3501AB
:101800004601062E04C096948794779467940A94B0
:10181000D2F721E030E040E050E004C0220F331F57
:10182000441F551F6A95D2F7215030404040504028
:101830002A213B214C215D2121153105410551050E
:1018400021F021E030E040E050E059016A01A62893
:10185000B728C828D9280BC0821593052CF01C0185
:10186000AA24BB24650103C0EE24FF24870111963E
:101870009C91D20111968C91981709F445C0992337
:1018800039F0A80197012A193B094C095D0906C0E6
:10189000A60195012E193F09400B510B57FD08C0B9
:1018A00011823382228224833583468357831DC06D
:1018B00081E081833382228288279927DC01821B81
:1018C000930BA40BB50B84839583A683B7830DC0BC
:1018D000220F331F441F551F2483358346835783AC
:1018E000828193810197938382832481358146810C
:1018F0005781DA01C9010197A109B1098F5F9F4F93
:10190000AF4FBF4328F30BC0918333822282EA0C8E
:10191000FB1C0C1D1D1DE482F5820683178383E0EA
:101920008083248135814681578157FF1AC0C901C0
:10193000AA2797FDA095BA2F81709070A070B07003
:101940005695479537952795822B932BA42BB52B2E
:1019500084839583A683B783828193810196938341
:101960008283DF0101C0D201CD01CDB7DEB7E2E154
:101970000C94CF12A0E2B0E0E0ECFCE00C94BF12BB
:1019800069837A838B839C832D833E834F8358871F
:10199000E9E0EE2EF12CEC0EFD1ECE010196B70112
:1019A0000E949D118E010F5E1F4FCE010596B8015A
:1019B0000E949D118A8991E089278A8BC701B8010D
:1019C000AE01475E5F4F0E946E0B0E94C810A0964A
:1019D000E6E00C94DB12A0E2B0E0E1EFFCE00C9456
:1019E000BF1269837A838B839C832D833E834F83CD
:1019F0005887F9E0EF2EF12CEC0EFD1ECE0101967A
:101A0000B7010E949D118E010F5E1F4FCE010596FA
:101A1000B8010E949D11C701B801AE01475E5F4F3A
:101A20000E946E0B0E94C810A096E6E00C94DB1298
:101A3000A0E2B0E0EEE1FDE00C94B31269837A839A
:101A40008B839C832D833E834F835887CE010196E1
:101A5000BE01675F7F4F0E949D11CE010596BE01BA
:101A60006F5E7F4F0E949D119985923088F0898921
:101A70008230C8F0943019F4823051F404C08430BC
:101A800029F4923081F480E391E0C6C0923049F4A9
:101A900020E09A858A89981321E02A87CE01099649
:101AA000BBC0823049F420E09A858A89981321E0EE
:101AB0002A8BCE014196B0C02D843E844F84588835
:101AC0006D887E888F88988CEE24FF248701AA2455
:101AD000BB24650140E050E060E070E0E0E0F0E051
:101AE000C10181709070892BE9F0E60CF71C081D8C
:101AF000191D9A01AB012A0D3B1D4C1D5D1D80E097
:101B000090E0A0E0B0E0E614F7040805190520F421
:101B100081E090E0A0E0B0E0BA01A901480F591FB0
:101B20006A1F7B1FAA0CBB1CCC1CDD1C97FE08C0C7
:101B300081E090E0A0E0B0E0A82AB92ACA2ADB2A16
:101B40003196E032F10549F0660C771C881C991C2F
:101B50005694479437942794C3CFFA85EA892B8902
:101B60003C898B859C85280F391F2E5F3F4F17C0FE
:101B7000CA0181709070892B61F016950795F794D2
:101B8000E79480E090E0A0E0B0E8E82AF92A0A2B88
:101B90001B2B76956795579547952F5F3F4F77FDA0
:101BA000E7CF0CC0440F551F661F771F17FD41601C
:101BB000EE0CFF1C001F111F21503040403090E000
:101BC000590790E0690790E4790760F32B8F3C8F09
:101BD000DB01CA018F779070A070B07080349105DE
:101BE000A105B10561F447FD0AC0E114F104010546
:101BF000110529F0405C5F4F6F4F7F4F40781A8E80
:101C0000FE1711F081E08A8F4D8F5E8F6F8F78A362
:101C100083E0898FCE0149960E94C810A096E2E128
:101C20000C94CF12A8E1B0E0E8E1FEE00C94BB1206
:101C300069837A838B839C832D833E834F8358876C
:101C4000B9E0EB2EF12CEC0EFD1ECE010196B70192
:101C50000E949D118E010F5E1F4FCE010596B801A7
:101C60000E949D112985223008F47EC039893230C6
:101C700010F4B8017CC08A859A8989278A87243024
:101C800011F0223031F4231709F06EC060E371E0E7
:101C90006EC0343039F41D861E861F86188A1C8655
:101CA0001B8604C0323021F484E08987B7015FC00D
:101CB0002B853C858B899C89281B390B3C872B877E
:101CC000ED84FE840F851889AD88BE88CF88D88CB6
:101CD000EA14FB040C051D0540F4EE0CFF1C001F6C
:101CE000111F215030403C872B8720E030E040E03E
:101CF00050E080E090E0A0E0B0E460E070E0EA1442
:101D0000FB040C051D0540F0282B392B4A2B5B2BBF
:101D1000EA18FB080C091D09B695A79597958795B4
:101D2000EE0CFF1C001F111F6F5F7F4F6F3171059D
:101D300031F7DA01C9018F779070A070B0708034EC
:101D40009105A105B10561F427FD0AC0E114F10474
:101D50000105110529F0205C3F4F4F4F5F4F207860
:101D60002D873E874F87588BBE01675F7F4FCB0122
:101D70000E94C8106896EAE00C94D712A8E1B0E07F
:101D8000E4ECFEE00C94BF1269837A838B839C831E
:101D90002D833E834F83588789E0E82EF12CEC0E8B
:101DA000FD1ECE010196B7010E949D118E010F5EAE
:101DB0001F4FCE010596B8010E949D118985823082
:101DC00040F08989823028F0C701B8010E941512BD
:101DD00001C08FEF6896E6E00C94DB12A8E1B0E05A
:101DE000E4EFFEE00C94BF1269837A838B839C83BB
:101DF0002D833E834F83588789E0E82EF12CEC0E2B
:101E0000FD1ECE010196B7010E949D118E010F5E4D
:101E10001F4FCE010596B8010E949D118985823021
:101E200040F08989823028F0C701B8010E9415125C
:101E300001C08FEF6896E6E00C94DB12A8E1B0E0F9
:101E4000E4E2FFE00C94BF1269837A838B839C8366
:101E50002D833E834F83588789E0E82EF12CEC0ECA
:101E6000FD1ECE010196B7010E949D118E010F5EED
:101E70001F4FCE010596B8010E949D1189858230C1
:101E800040F08989823028F0C701B8010E941512FC
:101E900001C081E06896E6E00C94DB12A8E0B0E0B7
:101EA000E4E5FFE00C94BC129B01AC0183E0898364
:101EB000DA01C9018827B7FD83959927AA27BB278F
:101EC000B82E211531054105510519F482E08983A9
:101ED0003AC08823A9F0203080E0380780E0480726
:101EE00080E8580729F460E070E080E09FEC30C0A3
:101EF000EE24FF248701E21AF30A040B150B02C03B
:101F000079018A018EE1C82ED12CDC82CB82ED8250
:101F1000FE820F831887C801B7010E9479100197CC
:101F20001816190684F4082E04C0EE0CFF1C001FBE
:101F3000111F0A94D2F7ED82FE820F831887C81A08
:101F4000D90ADC82CB82BA82CE0101960E94C810E7
:101F50002896E9E00C94D812ACE0B0E0E2EBFFE0A8
:101F60000C94C31269837A838B839C83CE01019680
:101F7000BE016B5F7F4F0E949D118D81823061F1A8
:101F8000823050F1843021F48E81882351F12EC0AB
:101F90002F81388537FD20C06E812F3131051CF02F
:101FA0006623F9F023C08EE190E0821B930B298514
:101FB0003A854B855C8504C056954795379527959E
:101FC0008A95D2F76623B1F05095409530952195CA
:101FD0003F4F4F4F5F4F0EC020E030E040E050E0F9
:101FE00009C02FEF3FEF4FEF5FE704C020E030E084
:101FF00040E050E8B901CA012C96E2E00C94DF12EF
:10200000A8E0B0E0E6E0F0E10C94BB127B018C01AB
:10201000611571058105910519F482E0898360C01D
:1020200083E089838EE1C82ED12CDC82CB82ED82C5
:10203000FE820F831887C801B7010E947910FC0146
:102040003197F7FF3BC0222733272E1B3F0B570149
:102050006801022E04C0D694C794B794A7940A943A
:10206000D2F740E050E060E070E081E090E0A0E076
:10207000B0E004C0880F991FAA1FBB1F2A95D2F792
:102080000197A109B1098E219F21A023B1230097B7
:10209000A105B10521F041E050E060E070E04A297F
:1020A0005B296C297D294D835E836F8378878EE160
:1020B00090E08E1B9F0B9C838B8312C0309781F026
:1020C0000E2E04C0EE0CFF1C001F111F0A94D2F745
:1020D000ED82FE820F831887CE1ADF0ADC82CB8264
:1020E0001A82CE0101960E94C8102896EAE00C944C
:1020F000D712EF92FF920F931F937B018C0180E028
:10210000E81680E0F80681E0080780E0180788F408
:102110008FEFE816F1040105110531F028F088E091
:1021200090E0A0E0B0E017C080E090E0A0E0B0E078
:1021300012C080E0E81680E0F80680E0080781E041
:10214000180728F088E190E0A0E0B0E004C080E14A
:1021500090E0A0E0B0E020E230E040E050E0281B5A
:10216000390B4A0B5B0B04C016950795F794E7945F
:102170008A95D2F7F701E85CFE4F8081281B310970
:1021800041095109C9011F910F91FF90EF900895E6
:10219000DF92EF92FF920F931F93FC01E480F58092
:1021A00006811781D1808081823048F480E090E000
:1021B000A0E1B0E0E82AF92A0A2B1B2BA5C0843045
:1021C00009F49FC0823021F4EE24FF24870105C06A
:1021D000E114F1040105110519F4E0E0F0E096C006
:1021E000628173819FEF623879070CF05BC022E84F
:1021F0003FEF261B370B2A3131052CF020E030E071
:1022000040E050E02AC0B801A701022E04C0769534
:102210006795579547950A94D2F781E090E0A0E042
:10222000B0E004C0880F991FAA1FBB1F2A95D2F7E0
:102230000197A109B1098E219F21A023B123009705
:10224000A105B10521F081E090E0A0E0B0E09A01A5
:10225000AB01282B392B4A2B5B2BDA01C9018F7775
:102260009070A070B07080349105A105B10539F46B
:1022700027FF09C0205C3F4F4F4F5F4F04C0215CD8
:102280003F4F4F4F5F4FE0E0F0E02030A0E03A07D3
:10229000A0E04A07A0E45A0710F0E1E0F0E079017D
:1022A0008A0127C06038710564F5FB01E158FF4FD2
:1022B000D801C7018F779070A070B07080349105FD
:1022C000A105B10539F4E7FE0DC080E490E0A0E07F
:1022D000B0E004C08FE390E0A0E0B0E0E80EF91EAB
:1022E0000A1F1B1F17FF05C016950795F794E79463
:1022F000319687E016950795F794E7948A95D1F77C
:1023000005C0EE24FF248701EFEFF0E06E2F679504
:1023100066276795902F9F77D794DD24D7948E2FCB
:102320008695492F462B582F5D29B701CA011F9169
:102330000F91FF90EF90DF900895FC01DB01408149
:1023400051812281622F6F7770E0221F2227221F86
:102350009381892F880F822B282F30E0991F99278E
:10236000991F11969C93119721153105A9F54115D7
:1023700051056105710511F482E037C082E89FEFD5
:1023800013969C938E9312979A01AB0167E0220FEC
:10239000331F441F551F6A95D1F783E08C930DC0FE
:1023A000220F331F441F551F12968D919C91139736
:1023B000019713969C938E931297203080E03807F4
:1023C00080E0480780E4580758F314962D933D9316
:1023D0004D935C93179708952F3F310579F441157C
:1023E00051056105710519F484E08C93089564FF2B
:1023F00003C081E08C9312C01C9210C02F57304054
:1024000013963C932E93129783E08C9387E0440FAE
:10241000551F661F771F8A95D1F7706414964D93E8
:102420005D936D937C93179708951F93DC01FB01D7
:102430009C91923008F447C08081823008F443C0F8
:10244000943051F411961C91843099F58181682F54
:1024500070E0611B71093FC0843021F0923031F48B
:102460008230B9F18181882389F12DC011961C91A8
:1024700011978230F1F081811817D9F412962D91BD
:102480003C911397828193818217930794F02817C8
:102490003907BCF014968D919D910D90BC91A02DA3
:1024A0002481358146815781281739074A075B0700
:1024B00018F4112341F00AC082179307A407B50747
:1024C00040F4112319F061E070E005C06FEF7FEF79
:1024D00002C060E070E0CB011F910895FB019F01F5
:1024E000E8944230C4F04532B4F44A3029F497FB02
:1024F0001EF4909581959F4F642F77270E949F121D
:10250000805D8A330CF0895D8193CB010097A1F740
:1025100016F45DE251931082C9010C948F12DC0114
:10252000FC01672F71917723E1F7329704C07C910A
:102530006D9370836291AE17BF07C8F30895AA1B0D
:10254000BB1B51E107C0AA1FBB1FA617B70710F09E
:10255000A61BB70B881F991F5A95A9F780959095D0
:10256000BC01CD0108952F923F924F925F926F92DE
:102570007F928F929F92AF92BF92CF92DF92EF9213
:10258000FF920F931F93CF93DF93CDB7DEB7CA1B94
:10259000DB0B0FB6F894DEBF0FBECDBF09942A88BF
:1025A000398848885F846E847D848C849B84AA8467
:1025B000B984C884DF80EE80FD800C811B81AA81F4
:1025C000B981CE0FD11D0FB6F894DEBF0FBECDBFBF
:1025D000ED0108950EF00AC119C1689401C165D1D9
:1025E000C8F39923D1F3C6F3DF93CF931F930F93CF
:1025F000FF92C92FDD2788232AF02197660F771FC6
:10260000881FDAF720E030E040E85FEB9FE388398D
:1026100020F0803E30F021968F77DDD9ECE5F0E0B8
:1026200003C0D9D9E9E8F0E0F4D08B01BE01EC0198
:10263000FB2E6F5771097595771F880B990B2EDC50
:1026400028E132E741E35FE314D0AF2D9801AE01FA
:10265000FF900F911F91CF91DF916FD00DC1FED0F0
:1026600028F003D118F0952309F0BAC0CFC0112487
:1026700037C113D1A0F3959FD1F3950F50E0551FAB
:10268000629FF001729FBB27F00DB11D639FAA27C7
:10269000F00DB11DAA1F649F6627B00DA11D661F16
:1026A000829F2227B00DA11D621F739FB00DA11D37
:1026B000621F839FA00D611D221F749F3327A00DF1
:1026C000611D231F849F600D211D822F762F6A2F8D
:1026D00011249F5750408AF0E1F088234AF0EE0F12
:1026E000FF1FBB1F661F771F881F91505040A9F71F
:1026F0009E3F510570F074C0F3C05F3FECF3983E0D
:10270000DCF3869577956795B795F795E7959F5F85
:10271000C1F7FE2B880F911D9695879597F908951F
:102720009DD030F0A2D020F031F49F3F11F41EF480
:102730006DC00EF4E095E7FB53C0E92FAED080F3F7
:10274000BA17620773078407950718F071F49EF5AE
:10275000C6C00EF4E0950B2EBA2FA02D0B01B901C7
:1027600090010C01CA01A0011124FF27591B99F007
:10277000593F50F4503E68F11A16F040A22F232F13
:10278000342F4427585FF3CF469537952795A79563
:10279000F0405395C9F77EF41F16BA0B620B730B0A
:1027A000840BBAF09150A1F0FF0FBB1F661F771F7B
:1027B000881FC2F70EC0BA0F621F731F841F48F430
:1027C000879577956795B795F7959E3F08F0B3CFB6
:1027D0009395880F08F09927EE0F979587950895A0
:1027E00097F99F6780E870E060E008959F3F49F0A7
:1027F000915028F4869577956795B7959F5F8038B7
:102800009F4F880F9695879597F908959FEF80ECD5
:102810000895DF93CF931F930F93FF92EF92DF9270
:102820007B018C01689405C0DA2EEF0122DFFE01E6
:10283000E894A5912591359145915591AEF3EF011D
:102840007CDFFE019701A801DA9479F7DF90EF9021
:10285000FF900F911F91CF91DF91089500240A946A
:102860001616170618060906089500240A9412166B
:102870001306140605060895092E0394000C11F49E
:10288000882352F0BB0F40F4BF2B11F460FF04C04B
:102890006F5F7F4F8F4F9F4F089557FD9058440FA4
:1028A000551F59F05F3F71F04795880F97FB991FAF
:1028B00061F09F3F79F0879508951216130614066C
:1028C000551FF2CF4695F1DF08C0161617061806F9
:1028D000991FF1CF86957105610508940895E894D4
:1028E000BB2766277727CB0197F90895F894FFCF88
:1028F00057454C434F4D450050415353574F524459
:10290000004F4B0054454D5000414C41524D004545
:10291000786974004641494C004C4F434B00030F0B
:102920000000000000000000000102020303030396
:10293000040404040404040405050505050505054F
:10294000050505050505050506060606060606062F
:102950000606060606060606060606060606060617
:1029600006060606060606060707070707070707FF
:1029700007070707070707070707070707070707E7
:1029800007070707070707070707070707070707D7
:1029900007070707070707070707070707070707C7
:1029A00007070707070707070808080808080808AF
:1029B0000808080808080808080808080808080897
:1029C0000808080808080808080808080808080887
:1029D0000808080808080808080808080808080877
:1029E0000808080808080808080808080808080867
:1029F0000808080808080808080808080808080857
:102A00000808080808080808080808080808080846
:102A10000808080808080808080808080808080836
:082A200008080808080808086E
:00000001FF
